:100000000C9437000C94AE000C94AE000C94AE002F
:100010000C94AE000C94AE000C94AE000C94AE00A8
:100020000C94AE000C94AE000C94AE000C94AE0098
:100030000C94AE000C94AE000C94AE000C94AE0088
:100040000C94AE000C94AE000C94AE000C94AE0078
:100050000C94AE000C94AE000C94AE000C94AE0068
:100060000C94AE000C94AE00010001088000112435
:100070001FBECFEFD8E0DEBFCDBFE8E6F0E040E046
:1000800017C0B591A59135912591059107FD0CC03B
:1000900095918591EF01F92FE82F05900D92A21708
:1000A000B307D9F7FE0104C01D92A217B307E1F709
:1000B000ED36F40731F70E9484000C949500F89413
:0200C000FFCF70
:1000C200CF92DF92EF92FF920F931F93CF93DF9322
:1000D2007C018B016A01C0E0D0E009C0F701819187
:1000E2007F010E94A700F80181938F012196CC1510
:1000F200DD05A0F3DF91CF911F910F91FF90EF905B
:06010200DF90CF9008958C
:100108000E94A00044E050E064E071E080E091E0EB
:100118000E94610087EA91E60197F1F700C00000AC
:02012800F1CF15
:10012A00EC010E94B3000E94B200CE010E94B4000A
:06013A00CE010E94B0009E
:0E01400084B1886284B981E58CBD8DB50895C7
:0E014E008AE08EBD0DB407FEFDCF8EB508957C
:04015C000C940000FF
:040160000E945F009A
:020164000895FC
:020166000895FA
:020168000895F8
:00000001FF
