:100000000C9434000C9486000C9486000C948600AA
:100010000C9486000C9486000C9486000C94860048
:100020000C9486000C9486000C9486000C94860038
:100030000C9486000C9486000C9486000C94860028
:100040000C9486000C9486000C9486000C94860018
:100050000C9486000C9486000C9486000C94860008
:100060000C9486000C94860011241FBECFEFD8E0BC
:10007000DEBFCDBF0E9459000C947200F894FFCFF0
:10008000ECEBF0E09081946A90839091BC0099230E
:10009000E4F7880F8093BB0084E88093BC008091D4
:1000A000BC008823E4F78091B90084E98093BC0008
:0200B0000895B1
:1000B2000E947D002FEF83ED90E32150804090401D
:1000C200E1F700C0000061E685E50E9440002FEFE5
:1000D20083ED90E3215080409040E1F700C00000A2
:0200E200F2CF5B
:1000E400EC010E948B000E948A00CE010E948C00C9
:0600F400CE010E9488000D
:1000FA001092B9008CE08093B80084E08093BC0031
:02010A00089556
:04010C000C9400004F
:040110000E943E000B
:0201140008954C
:0201160008954A
:02011800089548
:00000001FF
