:100000000C9434000C946F000C946F000C946F00EF
:100010000C946F000C946F000C946F000C946F00A4
:100020000C946F000C946F000C946F000C946F0094
:100030000C946F000C946F000C946F000C946F0084
:100040000C946F000C946F000C946F000C946F0074
:100050000C946F000C946F000C946F000C946F0064
:100060000C946F000C946F0011241FBECFEFD8E0EA
:10007000DEBFCDBF0E9440000C945B00F894FFCF20
:100080000E9466002FEF83ED90E321508040904066
:10009000E1F700C0000061E670E085E590E00E94B5
:1000A00066002FEF83ED90E3215080409040E1F710
:0600B00000C00000F0CFCB
:1000B600EC010E9474000E947300CE010E9475003C
:0600C600CE010E94710052
:1000CC001092B9008CE08093B80084E08093BC005F
:0200DC00089585
:0400DE000C9400007E
:0400E2000E943E003A
:0200E60008957B
:0200E800089579
:0200EA00089577
:00000001FF
