:100000000C9434000C9482000C9482000C948200B6
:100010000C9482000C9482000C9482000C94820058
:100020000C9482000C9482000C9482000C94820048
:100030000C9482000C9482000C9482000C94820038
:100040000C9482000C9482000C9482000C94820028
:100050000C9482000C9482000C9482000C94820018
:100060000C9482000C94820011241FBECFEFD8E0C4
:10007000DEBFCDBFE8E6F0E040E017C0B591A59146
:1000800035912591059107FD0CC095918591EF0162
:10009000F92FE82F05900D92A217B307D9F7FE01AB
:1000A00004C01D92A217B307E1F7E836F40731F751
:0C00B0000E946B000C947700F894FFCFC6
:1000BC001092B9008CE08093B8008AEA8093BA0061
:0A00CC0085E08093BC00789408954D
:1000D6000E945E002FEF83ED90E321508040904018
:0800E600E1F700C00000FFCFAC
:1000EE00EC010E9487000E948600CE010E948800CB
:0600FE00CE010E94840007
:040104000C94000057
:040108000E945C00F5
:02010C00089554
:02010E00089552
:02011000089550
:00000001FF
