:100000000C9434000C9468000C9468000C94680004
:100010000C9468000C9468000C9468000C946800C0
:100020000C9468000C9468000C9468000C946800B0
:100030000C9468000C9468000C9468000C946800A0
:100040000C9440000C9468000C9468000C946800B8
:100050000C9468000C9468000C9468000C94680080
:100060000C9468000C94680011241FBECFEFD8E0F8
:10007000DEBFCDBF0E9452000C945D00F894FFCF0C
:100080001F920F920FB60F9211248F939F9395B1E9
:1000900081E0892785B99F918F910F900FBE0F90B6
:0400A0001F90189500
:1000A40083E084BD82E085BD89EF87BD81E08093D4
:0600B4006E007894FFCFFE
:1000BA00EC010E946D000E946C00CE010E946E004D
:0600CA00CE010E946A0055
:0400D0000C9400008C
:0400D4000E943E0048
:0200D800089589
:0200DA00089587
:0200DC00089585
:00000001FF
